:100000000C9482050C94AA050C94AA050C94AA05DC
:100010000C94AA050C94AA050C94AA050C94AA05A4
:100020000C94AA050C94AA050C94AA050C94AA0594
:100030000C94AA050C94AA050C94AA050C94AA0584
:100040000C9431170C94AA050C94A1170C947B17EF
:100050000C94AA050C94AA050C94AA050C94AA0564
:100060000C94D3170C94AA05005EBCE2613FDD83BB
:10007000C29C7E20A3FD1F41009D23BE46DB65F888
:100080008C11AF32CA57E97400000000003E5B4F8C
:100090005B3E3E6B4F6B3E1C3E7C3E1C183C7E3CE8
:1000A000181C577D571C1C5E7F5E1C00183C1800F6
:1000B000FFE7C3E7FF0018241800FFE7DBE7FF3086
:1000C000483A060E2629792926407F050507407FF4
:1000D00005253F5A3CE73C5A7F3E1C1C08081C1C67
:1000E0003E7F14227F22145F5F005F5F06097F015D
:1000F0007F006689956A606060606094A2FFA29448
:1001000008047E040810207E201008082A1C080815
:100110001C2A08081E101010100C1E0C1E0C303863
:100120003E3830060E3E0E06000000000000005F64
:1001300000000007000700147F147F14242A7F2A80
:100140001223130864623649562050000807030042
:10015000001C2241000041221C002A1C7F1C2A088E
:10016000083E0808008070300008080808080000F1
:1001700060600020100804023E5149453E00427F65
:10018000400072494949462141494D331814127FB4
:100190001027454545393C4A494931412111090754
:1001A0003649494936464949291E000014000000D5
:1001B00040340000000814224114141414140041A7
:1001C00022140802015909063E415D594E7C121164
:1001D000127C7F494949363E414141227F4141419C
:1001E0003E7F494949417F090909013E4141517317
:1001F0007F0808087F00417F41002040413F017F88
:10020000081422417F404040407F021C027F7F044F
:1002100008107F3E4141413E7F090909063E415198
:10022000215E7F09192946264949493203017F0188
:10023000033F4040403F1F2040201F3F4038403F89
:10024000631408146303047804036159494D43009F
:100250007F4141410204081020004141417F0402D6
:10026000010204404040404000030708002054546D
:1002700078407F284444383844444428384444284B
:100280007F385454541800087E090218A4A49C789E
:100290007F0804047800447D40002040403D007FFA
:1002A0001028440000417F40007C047804787C08DA
:1002B0000404783844444438FC18242418182424AE
:1002C00018FC7C08040408485454542404043F4493
:1002D000243C4040207C1C2040201C3C4030403CC2
:1002E00044281028444C9090907C4464544C440022
:1002F0000836410000007700000041360800020186
:100300000204023C2623263C1EA1A161123A404071
:10031000207A3854545559215555794122545478EE
:1003200042215554784020545579400C1E52721287
:100330003955555559395454545939555454580010
:1003400000457C410002457D420001457C407D1214
:1003500011127DF0282528F07C5455450020545476
:100360007C547C0A097F4932494949323A44444421
:100370003A324A4848303A4141217A3A424020785C
:10038000009DA0A07D3D4242423D3D4040403D3C5D
:1003900024FF2424487E4943662B2FFC2F2BFF0982
:1003A00029F620C0887E0903205454794100004476
:1003B0007D413048484A32384040227A007A0A0A61
:1003C000727D0D19317D2629292F282629292926D4
:1003D00030484D4020380808080808080808382F19
:1003E00010C8ACBA2F102834FA00007B00000814A3
:1003F0002A142222142A14085500550055AA55AA79
:1004000055AAFF55FF55FF000000FF00101010FF18
:1004100000141414FF001010FF00FF1010F010F073
:10042000141414FC001414F700FF0000FF00FF1464
:1004300014F404FC141417101F10101F101F1414B0
:10044000141F00101010F0000000001F10101010FA
:100450001F10101010F010000000FF1010101010EE
:1004600010101010FF10000000FF140000FF00FF2C
:1004700000001F10170000FC04F4141417101714C8
:1004800014F404F40000FF00F714141414141414EA
:10049000F700F7141414171410101F101F1414145D
:1004A000F4141010F010F000001F101F0000001FC7
:1004B00014000000FC140000F010F01010FF10FFFA
:1004C000141414FF141010101F00000000F010FF8F
:1004D000FFFFFFFFF0F0F0F0F0FFFFFF0000000073
:1004E00000FFFF0F0F0F0F0F3844443844FC4A4AF7
:1004F0004A347E02020606027E027E0263554941AC
:10050000633844443C04407E201E2006027E0202E2
:1005100099A5E7A5991C2A492A1C4C7201724C30F6
:100520004A4D4D303048784830BC625A463D3E49CD
:100530004949007E0101017E2A2A2A2A2A44445F71
:10054000444440514A444040444A51400000FF0165
:1005500003E080FF000008086B6B08361236243673
:10056000060F090F060000181800000010100030D8
:1005700040FF0101001F01011E00191D1712003C60
:100580003C3C3C0000000000000103070F1F3F7FC0
:100590000080C0E0F0F8FCFEDB40A4A62EAF2000F7
:1005A000A1C8D300408DAED580A800006000000037
:1005B0000000000000000000000000E0000000005B
:1005C00000000000000000000001E000000000004A
:1005D000000000000000000001F00000000000002A
:1005E0000000000000000003F00000000000000018
:1005F00000000000000007F0000000000000000004
:10060000000000000007F8000000000000000000EB
:10061000000000000FF800000003C0007E00000191
:10062000E0007F0FF800000003C000FE000001E0C2
:1006300000FFEFF800000003C000FE000001E00032
:10064000FFFFF800000003C000F00000000F007F73
:10065000FE7FC0000003C000F00000000F003FFE5E
:100660007FF83FF1FBCFFCFEF3BC3DEFE01FFE7FC8
:10067000FF7FFBFFDFFEFEFFBC3DEFE01FC6FFFF7D
:100680007FFBFFDFFEFEFFBC3DEFE00FE3C7FE7820
:100690007BC3DE1EF0FFBC3DEF0007FF87FC787BCD
:1006A000C3DE1EF0F83C3DEF0001FFFFF0007BC30E
:1006B000C01EF0F03C3DEF0001F37FE03FFBC3CFF5
:1006C000FEF0F03C3DEF0003E33F807FFBC3DFFE25
:1006D000F0F03C3DEF0007E73C00787BC3DE1EF006
:1006E000F03C3DEF0007FFBE00787BC3DE1EF0F05C
:1006F0003C3DEF0007FFFE00787BC3DE1EF0F03CC0
:100700003DEF000FFFFE007FFBFFDFFEF0F03FFD3F
:10071000EFE00FFFFF007FFBFFDFFEF0F03FFDEF9C
:10072000E00FF9FF003E79F9CF9EF0F01F3DE7E0C2
:100730001FF1FF0000000000000000000000001F8B
:1007400080FF007FFFFFFFFFFFFFFFFFFFE01C00B8
:100750007F007FFFFFFFFEB46D888D18E000001F53
:10076000007FFFFFFFFE95AD7DB577E000000F0035
:100770007FFFFFFFFEA5AD9D8D19E0000006007F05
:10078000FFFFFFFEB5ADEDB57EE00000000000010B
:100790008000000000000000000003800000000056
:1007A000000000000007C000000000000000000082
:1007B00007C00000000000000000000FC0000000A3
:1007C0000000000000001FE000000000000000002A
:1007D000001FE00000000000000000003FE00000FB
:1007E000000000000000003FF000000000000000DA
:1007F00000007FF0000000000000001FF87FF00004
:100800000000000000003FFE7FF00000000000003C
:10081000003FFF7FF0000000000000001FFFFBE032
:10082000000000000000000FFFF9FFC00000000002
:1008300000000FFFF9FFF800000000000007FFF1C3
:10084000FFFF00000000000003FC73FFFF800000BA
:1008500000000001FE3FFFFF80000000000000FFDD
:100860001E0FFF000000000000007FFE1FFC0000C4
:1008700000000000003FFFFFF80000000000000043
:100880000FDFFFE0000000000000001F19FFC000A4
:100890000000000000003F3CFF00000000000000DE
:1008A000007E7CF800000000000000007FFE7C005D
:1008B00000000000000000FFFFFC0000000000003E
:1008C0000000FFFFFE0000000000000000FFFFFE30
:1008D0000000000000000001FFEFFE00000000002B
:1008E000000001FFCFFE0000000000000003FF0732
:1008F000FE0000000000000003FC07FE00000000F6
:1009000000000003F003FE00000000000000018072
:1009100000FE000000000000000000007E0000005B
:10092000000000000000003E000000000000000089
:1009300000000C000000000000078000FC00000325
:10094000C0000000078001FC000003C00000000799
:100950008001FC000003C0000000078001E00000EF
:10096000001E000000078001E00000001E007FE381
:10097000F79FF9FDE7787BDFC0FFF7FFBFFDFDFFC5
:10098000787BDFC0FFF7FFBFFDFDFF787BDFC0F0A6
:10099000F787BC3DE1FF787BDE00F0F787BC3DE1E7
:1009A000F0787BDE0000F787803DE1E0787BDE00B9
:1009B0007FF7879FFDE1E0787BDE00FFF787BFFDD3
:1009C000E1E0787BDE00F0F787BC3DE1E0787BDE9C
:1009D00000F0F787BC3DE1E0787BDE00F0F787BCF4
:1009E0003DE1E0787BDE00FFF7FFBFFDE1E07FFB4C
:1009F000DFC0FFF7FFBFFDE1E07FFBDFC07CF3F36B
:100A00009F3DE1E03E7BCFC0000000000000000001
:100A1000000000FFFFFFFFFFFFFFFFFFFFC0FFFF22
:100A2000FFFFFD68DB111A31C0FFFFFFFFFD2B5AEE
:100A3000FB6AEFC0FFFFFFFFFD4B5B3B1A33C0FFBC
:100A4000FFFFFFFD6B5BDB6AFDC041444A204C4960
:100A50004E454152205053550053534431333036A4
:100A600020616C6C6F636174696F6E206661696C84
:100A70006564004C494E4541522041444A20505340
:100A80005500436865636B20776972696E6700453E
:100A900072726F7220776974682073656E736F72FB
:100AA0000000000000240027002A000000000025AC
:100AB0000028002B000000000800020100000304D1
:100AC0000700000000000000002200FF21000000DD
:100AD0000023002600290004040404040404040282
:100AE00002020202020303030303030102040810CB
:100AF0002040800102040810200102040810200098
:100B0000F218382011241FBECFEFD8E0DEBFCDBFD2
:100B100011E0A0E0B1E0EEE3F7E402C005900D9231
:100B2000A439B107D9F723E0A4E9B1E001C01D92CF
:100B3000AA36B207E1F715E0C1E8D5E004C0219775
:100B4000FE010E945B22C038D107C9F70E94BE197E
:100B50000C9492230C940000089590E0FC01EB5457
:100B6000F54F2491FC01E551F54F3491FC01E95218
:100B7000F54FE491EE23C9F0222339F0233001F13F
:100B8000A8F4213019F1223029F1F0E0EE0FFF1F17
:100B9000E555F54FA591B4918FB7F894EC9161119B
:100BA00026C030953E233C938FBF08952730A9F08F
:100BB0002830C9F0243049F7809180008F7D03C030
:100BC000809180008F7780938000DFCF84B58F770E
:100BD00084BDDBCF84B58F7DFBCF8091B0008F7754
:100BE0008093B000D2CF8091B0008F7DF9CF3E2BA3
:100BF000DACFCF93DF9390E0FC01E551F54F2491DC
:100C00008952954FFC0184918823D1F090E0880FA0
:100C1000991FFC01EF55F54FA591B491FC01E555E5
:100C2000F54FC591D49161110EC09FB7F8948C9186
:100C3000E22FE0958E238C932881E223E8839FBFE7
:100C4000DF91CF9108958FB7F894EC91E22BEC935C
:100C50008FBFF6CF3FB7F894809150029091510228
:100C6000A0915202B091530226B5A89B05C02F3F18
:100C700019F00196A11DB11D3FBFBA2FA92F982FC2
:100C80008827BC01CD01620F711D811D911D42E0BD
:100C9000660F771F881F991F4A95D1F708958F9285
:100CA0009F92AF92BF92CF92DF92EF92FF926B0131
:100CB0007C010E942A064B015C01C114D104E104AD
:100CC000F104B9F00E942A06681979098A099B097A
:100CD000683E73408105910580F321E0C21AD10876
:100CE000E108F10888EE880E83E0981EA11CB11C73
:100CF000E4CFFF90EF90DF90CF90BF90AF909F90A8
:100D00008F90089508950895AF92BF92CF92DF9289
:100D1000EF92FF920F931F93CF93DF936C017B01B0
:100D20008B01040F151FEB015E01AE18BF08C01741
:100D3000D10759F06991D601ED91FC910190F081B4
:100D4000E02DC6010995892B79F7C501DF91CF9177
:100D50001F910F91FF90EF90DF90CF90BF90AF90D9
:100D60000895FC01538D448D252F30E0842F90E0B1
:100D7000821B930B541710F0CF9608950197089596
:100D8000FC01918D828D981761F0A28DAE0FBF2F5F
:100D9000B11D5D968C91928D9F5F9F73928F90E0B5
:100DA00008958FEF9FEF0895FC01918D828D981724
:100DB00031F0828DE80FF11D858D90E008958FEF61
:100DC0009FEF0895FC01918D228D892F90E0805C2A
:100DD0009F4F821B91098F739927089588E592E0B0
:100DE0000E94E20621E0892B09F420E0822F089579
:100DF00080E090E0892B29F00E94EE0681110C948E
:100E000000000895FC01A48DA80FB92FB11DA35AAD
:100E1000BF4F2C91848D90E001968F739927848F1A
:100E2000A689B7892C93A089B1898C91837080643D
:100E30008C93938D848D981306C00288F389E02DDE
:100E400080818F7D80830895EF92FF920F931F938F
:100E5000CF93DF93EC0181E0888F9B8D8C8D98136D
:100E60001AC0E889F989808185FF15C09FB7F89479
:100E7000EE89FF896083E889F989808183708064C5
:100E800080839FBF81E090E0DF91CF911F910F9110
:100E9000FF90EF900895F62E0B8D10E00F5F1F4F1F
:100EA0000F731127E02E8C8D8E110CC00FB607FC2E
:100EB000FACFE889F989808185FFF5CFCE010E94BC
:100EC0000207F1CFEB8DEC0FFD2FF11DE35AFF4F21
:100ED000F0829FB7F8940B8FEA89FB89808180624A
:100EE000CFCFCF93DF93EC01888D8823B9F0AA8907
:100EF000BB89E889F9898C9185FD03C0808186FDD5
:100F00000DC00FB607FCF7CF8C9185FFF2CF808123
:100F100085FFEDCFCE010E940207E9CFDF91CF918F
:100F20000895EF92FF920F931F93CF93DF93EC01FD
:100F3000EC80FD806E157F050CF070C057FF04C07B
:100F4000240F351F50E040E08E819F81FA01E20FAF
:100F5000F31F8E179F071CF49C01241B350B1216E0
:100F600013060CF05BC0922F842F8695869586958C
:100F70008E9DD0018F9DB00D11246A0F7B1FAF8D08
:100F8000B8A1A60FB71F477049F188E0841B482F0E
:100F9000682F70E0FB01E057FA4FE491281708F042
:100FA00063C0621B71092FEF30E002C035952795B1
:100FB0006A95E2F7E2230130110539F0B0F1023011
:100FC000110561F58C91E82702C08C91E82BEC9318
:100FD000941720F12C813D81A20FB31FE92FE41B50
:100FE000E83078F00230110521F58E2F9C91909514
:100FF0009C932C813D81A20FB31F88508830B0F79D
:10100000E770EE2359F0F0E0E857FA4FE491013031
:101010001105F9F010F10230110519F1DF91CF91AE
:101020001F910F91FF90EF900895E0958C91E82328
:10103000CECF81E00115110509F480E081959E2F46
:101040008C932C813D81A20FB31F98509830C0F72C
:10105000D7CF8C91E82BEC93E1CFE0958C91E823EE
:10106000FACF8C91E827F7CF0130110509F4ADCF05
:10107000E0F20230110509F4A5CFAE0DBF1DAECFD1
:101080000F931F93CF93DF9377FF04C0260F371F73
:1010900070E060E0DC011496CD91DC91FB01E20F81
:1010A000F31FCE17DF071CF49E01261B370B121609
:1010B00013064CF5FA0157FD3796A3E0F595E79531
:1010C000AA95E1F7EC9FD001ED9FB00DFC9FB00D0C
:1010D00011246A0F7B1FDC015F96ED91FC91E60FF6
:1010E000F71F4770552781E090E001C0880F4A95AF
:1010F000EAF7482F0130110559F0A8F02E0F3F1FD5
:1011000002301105E1F0DF91CF911F910F91089509
:101110002E0F3F1FE217F307B1F38191DF01119703
:10112000842B8C93F7CF80952E0F3F1FE217F30788
:1011300051F39191DF01119798239C93F7CFE21718
:10114000F30709F38191DF01119784278C93F7CF7F
:101150000F931F93FA01DC0156964C91569742303B
:10116000E9F04330A1F1413061F514964D915C9165
:10117000DA01AE1BBF0BFD01E21BF30B77FD0BC0C9
:10118000DC0116964D915C916417750724F4AB0150
:10119000BF010E9440081F910F91089514964D9130
:1011A0005C91DA01A61BB70BBD0161507109DC012E
:1011B00016964D915C91DA01AE1BBF0BFD01E21B4F
:1011C000F30B77FDE8CFAF010E949107E4CF1696AD
:1011D0004D915C91DA01A61BB70BBD0161507109FD
:1011E000CDCF0F931F93FA01DC0156964C91569781
:1011F0004230A9F0433091F1413019F514964D91E8
:101200005C91DA01AE1BBF0BFD013197F7FD04C005
:10121000AB01BF010E9491071F910F910895149691
:101220004D915C91DA01A61BB70BBD01DC0116964E
:101230004D915C91DA01AE1BBF0BFD013197621B32
:10124000730BF7FDE9CFDC0116964D915C91E41725
:10125000F50714F7AF010E944008DECF16964D91B6
:101260005C91DA01A61BB70BBD01621B730BCECFDD
:10127000FC0177FD64C080859185681779070CF0C3
:101280005EC057FD5CC082859385481759070CF0F6
:1012900056C086898230B1F0833029F1813041F423
:1012A00084819581841B950BAB01BC016150710950
:1012B0002130310509F108F443C02230310509F429
:1012C00063C0089584819581DC01A61BB70BBD0125
:1012D0006150710986819781DC01A41BB50BAD01BA
:1012E00041505109E5CF86819781861B970BBA0142
:1012F000AC0141505109DCCFCA0157FD0796A3E06C
:1013000095958795AA95E1F7A481B5818A9F90016B
:101310008B9F300D9A9F300D1124620F731F078C25
:10132000F0A1E02DE60FF71F4770552721E030E0D0
:1013300001C0220F4A95EAF78081822B80830895AD
:10134000CA0157FD079633E0959587953A95E1F7E1
:10135000A481B5818A9F90018B9F300D9A9F300D9B
:101360001124620F731F078CF0A1E02DE60FF71F09
:101370004770552781E090E001C0880F4A95EAF751
:10138000809590818923DACFCA0157FD079623E023
:10139000959587952A95E1F7A481B5818A9F90015B
:1013A0008B9F300D9A9F300D1124620F731F078C95
:1013B000F0A1E02DE60FF71F4770552721E030E040
:1013C00001C0220F4A95EAF780818227B7CF08959E
:1013D0008EBD00000DB407FEFDCF8EB508958CBD07
:1013E0009DBD08950895FC016370668B848195818D
:1013F00026813781613039F0633029F09187808709
:1014000033872287089531872087938782870895BD
:101410002F923F924F925F926F927F928F929F9204
:10142000AF92BF92CF92DF92EF92FF920F931F93F2
:10143000CF93DF93CDB7DEB76A970FB6F894DEBFD0
:101440000FBECDBF9A8F898F7A8369834A01D22ECE
:1014500018870F833701BC2CDC0159962D913C91E4
:101460005A972115310509F015C118968D919C9157
:101470001997681779070CF0D7C11A968D919C912E
:10148000481759070CF0D0C14C2C512CB6E0CB9E1C
:10149000600D711D11247C876B87161617060CF0E2
:1014A000C3C1EA2DF0E0FA87E98793E0EE0FFF1F52
:1014B0009A95E1F7F88BEF87CF01840F951F1816E7
:1014C00019060CF0B1C1A98DBA8D58968C91811175
:1014D00004C0BFEABD1508F4D394A98DBA8DED916F
:1014E000FC9111970284F385E02DCD010995B5E0BB
:1014F000DB9EC0011124E981FA81FC83EB83312C4E
:10150000212C9C0128573F4F388F2F8B4A2D50E0BC
:101510005E8B4D8BEF89F88DE20DF31D44919E8219
:101520008D82D12CC12C69817A81620D731D7A8BD9
:10153000698B842F90E09C8B8B8BE98DFA8DA08139
:10154000B18140FF82C0F1E0BF126FC0AF126DC029
:101550001C96ED91FC912F813885A4014C0D5D1DE9
:1015600069897A89898D9A8D0995EB89FC89F59528
:10157000E7954E2F5FEFC51AD50A6D817E818D8963
:101580009E89680F791F7E836D8398E0C916D10408
:1015900081F6AFEF2A1A3A0AEB81FC81E40DF51DC2
:1015A000FC83EB83F5E02F16310409F0B3CF2F81D4
:1015B000388526153705B9F0A98DBA8DED91FC91C6
:1015C000B1E0BB1257C0AB1255C069817A816B5F25
:1015D0007F4F0088F189E02D830128E030E0A401ED
:1015E000898D9A8D0995A98DBA8DED91FC911197F0
:1015F0000688F789E02DCD016A960FB6F894DEBF14
:101600000FBECDBFDF91CF911F910F91FF90EF9053
:10161000DF90CF90BF90AF909F908F907F906F9012
:101620005F904F903F902F9009941E96ED91FC9102
:10163000EF80F88409851A8592014D815E816B8166
:101640007C81898D9A8D099590CF2F8138852615BB
:10165000370509F48ACF31E0B31207C0A31205C0E1
:101660001C96ED91FC91930178CF1E96ED91FC9123
:101670007301E0CF6B857C85641975090684F78555
:10168000E02D73010F8518899201A401898D9A8D2F
:101690000995A9CFF90134969491329745915491C7
:1016A000D91AB7E0DB9E400D511D1124F901259197
:1016B00034913C8B2B8BFA0125903490FA013296B1
:1016C000749031963491398B32966490319644906F
:1016D00041E04C1518F04A1508F07FC0662D062C25
:1016E000000C770B7C836B83842D042C000C990BEE
:1016F0009E838D83A98DBA8DED91FC911197028403
:10170000F385E02DCD010995512CD12CC12CEA2D6A
:10171000F0E0FA87E9872B2D30E03C872B87A40186
:10172000440D511D47FC5A95588F4F8B69817A8122
:10173000660D711D67FC7A957E876D877989C7165E
:1017400008F051CF2C2D30E04D815E81420F531FA8
:10175000A985BA854A9FC0014B9F900D5A9F900D55
:101760001124FC01E80DF91DF88BEF87852D612C04
:101770004F89588D420F531F5E8B4D8B671408F0B5
:1017800050C044244394480E877041F4C10101962F
:10179000EB89FC89E20DF31DD4901C01D7FE19C022
:1017A000A98DBA8DED91FC91662D70E0B1E0BB1270
:1017B00019C0AB1217C02D853E85620F731F0484BC
:1017C000F585E02D2F8138854D895E89898D9A8D2B
:1017D0000995DD0C6394842DD1CF1E821D821C825D
:1017E0001B8288CF4B815C81640F751FAB85BC85E4
:1017F0006A9FC0016B9F900D7A9F900D11246981A3
:101800007A81680F791F0684F785E02DEF80F884D0
:1018100009851A859D014F855889898D9A8D09956D
:10182000D8CF570CC3948ACF6A960FB6F894DEBF10
:101830000FBECDBFDF91CF911F910F91FF90EF9021
:10184000DF90CF90BF90AF909F908F907F906F90E0
:101850005F904F903F902F9008958F929F92AF92FC
:10186000CF92EF92FF920F931F93CF93DF93EC01F0
:10187000262F898D9A8D009709F051C06A30D1F4D6
:101880001D861C868D8948E0849F900111248E85D9
:101890009F85820F931F9F878E8781E090E0DF9165
:1018A000CF911F910F91FF90EF90CF90AF909F90AD
:1018B0008F9008956D3089F3CC88AD888F89882307
:1018C000C1F08C859D8536E0C39E800D911D11244D
:1018D000488559854817590764F44E855F851D86EC
:1018E0001C8638E0A39EC0011124840F951F9F879A
:1018F0008E87EA88FB88088919894E855F856C8503
:101900007D85CE010E94080A2C898C859D8546E044
:10191000249F800D911D11249D878C87BECF6A3036
:1019200069F41D861C86FC013896E4912D898E850C
:101930009F85E29F800D911D1124ADCF6D3009F47C
:10194000ACCFFC0134963491631708F4A6CF3296DD
:10195000E491E61708F4A1CFFC01329685909490AB
:10196000462F431B342F47E0349F800C911C1124D9
:10197000F401329634913196E4913323A9F1EE23A8
:1019800099F1CC88F4013596E491AD884F894423D0
:1019900001F10E2E000CFF0BE30FF11DCE9EA001F6
:1019A000CF9E500D11246C857D85460F571F68858D
:1019B0007985641775076CF44E855F851D861C86D6
:1019C000FC013896E491AE9E400D511D11245F87B5
:1019D0004E87EA88FB88088919894E855F856C8562
:1019E0007D85CE010E94080AF4013496E4912C8989
:1019F0008C859D85E29F800D911D11248DCF6F9266
:101A00007F928F929F92AF92BF92CF92DF92EF928E
:101A1000FF920F931F93CF93DF93EC016B015A0159
:101A200039014801E881F9810284F385E02D0995A7
:101A3000E881F9810288F389E02D87019301A501EE
:101A4000B601CE010995A501480D591D4150510916
:101A5000E881F9810288F389E02D9301B601CE0176
:101A60000995E881F9810088F189E02D9401A501AB
:101A7000B601CE010995C60CD71CB601615071099B
:101A8000E881F9810088F189E02D9401A501CE015A
:101A90000995E881F9810688F789E02DCE01DF916B
:101AA000CF911F910F91FF90EF90DF90CF90BF905B
:101AB000AF909F908F907F906F9009946F927F92DC
:101AC0008F929F92AF92BF92CF92DF92EF92FF924E
:101AD0000F931F93CF93DF935C01EB016A014901E0
:101AE00038018701DC01ED91FC916217730719F54C
:101AF000641675062CF0962D872D3A01C92ED82E26
:101B00009601261937092F5F3F4F048CF58DE02D84
:101B1000A301BE01C5010995DF91CF911F910F91DE
:101B2000FF90EF90DF90CF90BF90AF909F908F90FD
:101B30007F906F9008954615570591F42617370743
:101B400024F0892D4B01C22FD82F9E012819390965
:101B50002F5F3F4F068CF78DE02DA601B401DACF41
:101B60000284F385E02D0995D501ED91FC9104885F
:101B7000F589E02D83019401A601BE01C5010995F7
:101B8000D501ED91FC910688F789E02DC501DF9123
:101B9000CF911F910F91FF90EF90DF90CF90BF906A
:101BA000AF909F908F907F906F900994EF92FF92EB
:101BB0000F931F93DC011A960D911C911B97189699
:101BC0002D913C911997ED91FC9100A0F1A1E02D90
:101BD0007B0150E040E070E060E009951F910F91BB
:101BE000FF90EF9008954F925F926F927F928F9245
:101BF0009F92AF92BF92CF92DF92EF92FF920F939C
:101C00001F93CF93DF936C012B015A0139014801D7
:101C1000DC01ED91FC910284F385E02D0995E20150
:101C2000640C751CD601ED91FC91C615D7055CF4CA
:101C30000088F189E02D87019401A501BE01C6014C
:101C400009952196EFCF0688F789E02DC601DF912F
:101C5000CF911F910F91FF90EF90DF90CF90BF90A9
:101C6000AF909F908F907F906F905F904F9009946E
:101C70008F929F92AF92BF92CF92DF92EF92FF929C
:101C80000F931F93CF93DF93EC015B014A0169012E
:101C9000E881F9810284F385E02D099595012C0DE9
:101CA0003D1D21503109E881F9810488F589E02D35
:101CB00078018401A401B501CE010995E881F9817B
:101CC0000688F789E02DCE01DF91CF911F910F910A
:101CD000FF90EF90DF90CF90BF90AF909F908F904C
:101CE00009948F929F92AF92BF92CF92DF92EF9220
:101CF000FF920F931F93CF93DF93EC015B014A0197
:101D000069017801E881F9810284F385E02D099564
:101D1000C80CD91C860101501109E881F981048899
:101D2000F589E02D9501A401B501CE010995E88161
:101D3000F9810688F789E02DCE01DF91CF911F91BF
:101D40000F91FF90EF90DF90CF90BF90AF909F905A
:101D50008F900994EF92FF920F931F93DC01ED9106
:101D6000FC9100A0F1A1E02D09951F910F91FF902A
:101D7000EF9008950F931F93DC01ED91FC91068C79
:101D8000F78DE02D09951F910F9108950F931F93E3
:101D9000DC01ED91FC91048CF58DE02D09951F91EE
:101DA0000F910895DC01ED91FC910084F185E02D07
:101DB00009943F924F925F926F927F928F929F927F
:101DC000AF92BF92CF92DF92EF92FF920F931F9349
:101DD000CF93DF935C017B014A016901390187E000
:101DE000680E711C93E0759467949A95E1F72B0146
:101DF000400E511E10E000E0312CD0E0C0E0CE01DA
:101E000087709927330C892B59F4FE0183E0F595EF
:101E1000E7958A95E1F7E00FF11FE80DF91D349081
:101E200037FE0AC021E030E0A701B5016C0F7D1F2D
:101E300081E093E00E94D20E2196CC16DD06F9F6E1
:101E40008FEFE81AF80A060D171DE414F504A9F639
:101E5000DF91CF911F910F91FF90EF90DF90CF9086
:101E6000BF90AF909F908F907F906F905F904F90BA
:101E70003F9008952F923F924F925F926F927F9280
:101E80008F929F92AF92BF92CF92DF92EF92FF928A
:101E90000F931F93CF93DF9300D000D000D0CDB726
:101EA000DEB73C016A013E832D83FC82EB82580140
:101EB000A41AB50AB7FE03C0B194A194B1088D80ED
:101EC0009E80861A970A97FE03C091948194910888
:101ED0008A149B045CF0902F812F0D811E819D83BD
:101EE0008E839C2D8D2D6B01692F782F0C151D0570
:101EF0005CF09D818E817E836D83692F782F902F7A
:101F0000812F8601C92ED82E1601201A310A2B01E5
:101F10002D813E81421A530A57FE03C051944194C9
:101F20005108710137FE03C03FEFE31AF30AF5943D
:101F3000E7948D819E81861797075CF5A1E0B0E05C
:101F4000BA83A983C016D1064CF1D301ED91FC915F
:101F50000484F585E02D2B813C81A8016D817E8173
:101F60008A149B041CF04D815E81B801C301099560
:101F7000E418F508F7FE0AC02D813E8189819A8117
:101F8000280F391F3E832D83E20CF31C0F5F1F4F78
:101F9000D9CF2FEF3FEF3A832983D4CF26960FB6C0
:101FA000F894DEBF0FBECDBFDF91CF911F910F918F
:101FB000FF90EF90DF90CF90BF90AF909F908F9069
:101FC0007F906F905F904F903F902F90089508956D
:101FD0002091FA01260F3327331F21323105ECF40B
:101FE00020911E02FC0190E080E0243069F082E044
:101FF0000895A091FA012191AC0146525E4FA40FC1
:10200000B52FB11D2C930196861798F38091FA0194
:10201000680F6093FA0180E0089581E008951092BE
:102020001E0281E08093200210921F0261E082E193
:102030000E94AD0561E083E10E94AD05E9EBF0E0AF
:1020400080818E7F808380818D7F808388E48093F0
:10205000B80085E48093BC000895CF93DF9391E0AE
:102060009093D9018823B9F0C091B800D091BA00FB
:102070008091BC008A7B8093BC0060E082E10E947A
:10208000AD0560E083E10E94AD050E940F10D09382
:10209000BA00C093B800DF91CF910895E0914A0251
:1020A00080914902E81730F4F0E0EC54FE4F808153
:1020B00090E008958FEF9FEF089590914A028091EC
:1020C00049022FEF3FEF981748F4E92FF0E0EC5466
:1020D000FE4F208130E09F5F90934A02C90108952E
:1020E0008091490290914A02891B990B0895CF92E1
:1020F000DF92EF92FF920F931F93CF93DF937C01B8
:10210000CB018A0120915702222389F0EB016B0158
:10211000C40ED51ECC15DD0569F06991D701ED918E
:10212000FC910190F081E02DC7010995F3CF642F58
:102130000E94E80FC801DF91CF911F910F91FF908E
:10214000EF90DF90CF900895CF93DF931F92CDB79C
:10215000DEB76983209157022223F9F020915402BF
:10216000203258F021E030E0FC013383228390E0FC
:1021700080E00F90DF91CF91089580915502E82F74
:10218000F0E0EC56FE4F998190838F5F809355026B
:102190008093540281E090E0ECCF61E0CE010196A3
:1021A0000E94E80FF7CFCF92DF92EF92FF920F934A
:1021B0001F93CF93DF93D091540281E0D13208F086
:1021C0009CC0C09156020E942A066B017C0180913E
:1021D0001E0281116CC082E080931E0281E0809318
:1021E00020028FEF80931D0210924202D093410291
:1021F000A4E9B1E0E1E2F2E080E0D8138DC01092F2
:10220000430280914302CC0FC82BC09343028091BC
:102210001F02813009F084C010921F020E942A061A
:102220006B017C01809143028093BB008091D501BA
:102230009091D601A091D701B091D801892B8A2B1A
:102240008B2BA1F00E942A060091D5011091D60196
:102250002091D7013091D8016C197D098E099F0911
:10226000061717072807390708F442C08091BC00F9
:1022700083FDD8CF85EC8093BC000E942A066B01B9
:102280007C0180911E02823009F44CC080911D02B5
:102290008F3F09F469C080911D02803209F466C045
:1022A00080911D02803309F463C084E026C08091D0
:1022B000D5019091D601A091D701B091D801892B79
:1022C0008A2B8B2B09F483CF0E942A060091D5011B
:1022D0001091D6012091D7013091D8016C197D0958
:1022E0008E099F09061717072807390708F06FCFCF
:1022F0008091D4010E942D1085E010925502109219
:10230000540210925702DF91CF911F910F91FF90CD
:10231000EF90DF90CF9008959D9191938F5F6DCF57
:1023200085EEA9CF8091D5019091D601A091D701DA
:10233000B091D801892B8A2B8B2B09F4A2CF0E9454
:102340002A060091D5011091D6012091D701309134
:10235000D8016C197D098E099F09061717072807F0
:10236000390708F08ECFC4CF80E0C7CF82E0C5CF59
:1023700083E0C3CFEF92FF920F931F93CF93DF932E
:102380007C01C62F80911E0390911F03009709F4D2
:1023900059C02091220331E0309357022093560216
:1023A0001092550210925402DC01ED91FC910190C3
:1023B000F081E02D60E009958701EE24E394F12C93
:1023C000D1E0C15080911E0390911F03CF3F91F146
:1023D000B0E2EB16F104D8F00E94D31080911E03F6
:1023E00090911F0320912203D0935702209356020D
:1023F0001092550210925402DC01ED91FC91019073
:10240000F081E02D60E00995EE24E394F12C8091B9
:102410001E0390911F03F8016491DC01ED91FC9182
:102420000190F081E02D0995BFEFEB1AFB0A0F5FD9
:102430001F4FC7CFDF91CF911F910F91FF90EF906A
:102440000C94D310E0912E03F0912F039081809192
:1024500034038095892380838701C15008F438C0F4
:10246000F801849120911C0330911D03232B29F046
:102470000E94E8090F5F1F4FF0CF28E030E040E8EE
:10248000E0912A03F0912B0390913203582F5423AB
:10249000D9F05081952B9083E0912C03F0912D037E
:1024A000908150913303952B9083E0912C03F09110
:1024B0002D035081909133039095952390834695F9
:1024C00021503109E9F6D6CF508190959523E3CF7D
:1024D000DF91CF911F910F91FF90EF9008951F937F
:1024E000CF93DF93EC018D8D9E8D009721F1162FF8
:1024F00029A131E0309357022093560210925502E1
:1025000010925402DC01ED91FC910190F081E02DDC
:1025100060E009958D8D9E8DDC01ED91FC9101901F
:10252000F081E02D612F09958D8D9E8DDF91CF91EA
:102530001F910C94D310ADA5BEA59C918BA980953D
:1025400089238C938B8D9C8D892B31F0862FDF9185
:10255000CF911F910C94E80928E030E080E8A9A50C
:10256000BAA599A9462F4823C1F04C91942B9C936E
:10257000ABA5BCA59C914AA9942B9C93ABA5BCA5EB
:102580004C919AA9909594239C938695215031095A
:1025900031F7DF91CF911F9108954C91909594233D
:1025A000E6CFDF92EF92FF920F931F93CF93DF93CB
:1025B00080911E0390911F03892B09F4A5C02091DF
:1025C000360330913703409138035091390360E06E
:1025D00074E284EF90E00E942522205131094109E4
:1025E000510956954795379527952093B80064E093
:1025F00089EC9AE00E94BA1180910503909106033C
:102600008034910509F097C060E281E093E00E9478
:102610006F1260910503615E81E093E00E946F128A
:102620002091070330910803C901079697FD07968B
:1026300033E0959587953A95E1F720910503309120
:102640000603829F8001839F100D929F100D11241D
:10265000C0912003D091210380911E0390911F030C
:102660000C0F1D1F009709F498C02091220331E040
:102670003093570220935602109255021092540242
:10268000DC01ED91FC910190F081E02D60E4099571
:10269000EE24E394F12CDD24D39480911E039091D9
:1026A0001F030C171D0709F44FC0B0E2EB16F1042D
:1026B000D8F00E94D31080911E0390911F032091A7
:1026C0002203D09257022093560210925502109284
:1026D0005402DC01ED91FC910190F081E02D60E469
:1026E0000995EE24E394F12C80911E0390911F0331
:1026F0006991DC01ED91FC910190F081E02D09954B
:10270000BFEFEB1AFB0AC9CF80911C0390911D0308
:10271000892B31F080913F03909140030E94EF0993
:10272000E0913003F09131039081809135038095E1
:10273000892380835CCF60E081E093E00E946F1288
:1027400060910503615068CF0E94D31080911E03F1
:1027500090911F03892B09F461C020913A033091B5
:102760003B0340913C0350913D0360E074E284EFF1
:1027700090E00E94252220513109410951095695C6
:102780004795379527952093B800DF91CF911F91FA
:102790000F91FF90EF90DF900895E0912E03F0915C
:1027A0002F03808190913403892B80830C171D07A0
:1027B00069F2899120911C0330911D03232B19F09C
:1027C0000E94E809F3CF28E030E040E8E0912A03D6
:1027D000F0912B0390913203582F5423D9F050815C
:1027E000952B9083E0912C03F0912D0390815091D3
:1027F0003303952B9083E0912C03F0912D035081AE
:1028000090913303909595239083469521503109FB
:10281000E9F6CCCF508190959523E3CFE09130033A
:10282000F0913103808190913503892B8083ADCF66
:102830001F93CF93DF93EC01162F8D8D9E8D892BE7
:10284000B1F12DA93EA94FA958AD60E074E284EF23
:1028500090E00E94252220513109410951095695E5
:102860004795379527952093B80066EA111167EAD6
:10287000CE010E946F128D8D9E8D892B41F129AD65
:102880003AAD4BAD5CAD60E074E284EF90E00E9445
:10289000252220513109410951095695479537950F
:1028A00027952093B800DF91CF911F9108958B8DCC
:1028B0009C8D892B21F08EAD9FAD0E94EF09EFA575
:1028C000F8A990818CA9809589238083CECFEFA52C
:1028D000F8A980819CA9892B8083E5CF90E080E0D6
:1028E0000895DC0180E0615090F09D919827E92FD8
:1028F000EF70F0E0E859FF4F2491E92FE295EF7077
:10290000F0E0E858FF4FE491822F8E27ECCF089536
:10291000DC012C911196ED91FC91F8948181822B30
:1029200081839281322F30959323928387E090E0C8
:102930000197F1F781818323818383E290E00197FE
:10294000F1F790817894EFECF0E03197F1F7922372
:1029500081E009F480E00895FC0190810180F2811A
:10296000E02D292F209560FF14C0F89482818223E6
:1029700082838181892B8183A3E2B0E01197F1F7F3
:102980008281982B9283789487ED90E00197F1F7FC
:102990000895F8948281822382838181892B8183A7
:1029A000AFEFB0E01197F1F78281982B9283789482
:1029B0008FE090E0EBCFDF92EF92FF920F931F93A7
:1029C000CF93DF93EC01D62EE42E08E010E0FF2435
:1029D000F39461E08D2D8F2109F460E0CE010E9417
:1029E000AC14FF0C01501109A1F7E11010C0F894CC
:1029F000E981FA8191818881809589238183E981A8
:102A0000FA81928188818095892382837894DF91ED
:102A1000CF911F910F91FF90EF90DF900895EF926B
:102A2000FF920F931F93CF93DF938C017B0140E0C4
:102A300065E50E94DB14E70188E0E80EF11C69916E
:102A400040E0C8010E94DB14CE15DF05C1F7DF911D
:102A5000CF911F910F91FF90EF900895FC0190810D
:102A60000180F281E02DF8948181292F2095822325
:102A7000818378943DE743E050E0315029F1DA0159
:102A80001197F1F780818923C1F3F8948281822321
:102A900082838181892B81837894ABE7B7E011979A
:102AA000F1F7F894818182238183A3E1B1E011974A
:102AB000F1F78081982381E009F080E07894E3E6E3
:102AC000F6E03197F1F7089580E008956F927F92D4
:102AD0008F929F92AF92BF92CF92DF92EF92FF922E
:102AE0000F931F93CF93DF938C01EB0180914A03E7
:102AF00090914B030E942E15882309F43FC0B80122
:102B000080914A0390914B030E940F1540E06EEBB9
:102B100080914A0390914B030E94DB147E016E0169
:102B200089E0C80ED11C8E01A0904A03B0904B03DF
:102B300088E0882E912C712C66246394C5010E9434
:102B4000881481117628660CE1E08E1A9108B1F79D
:102B5000F80171928F01CE16DF0631F780914A039A
:102B600090914B030E942E15813041F4F701819121
:102B70007F01811105C0E017F107C1F790E008C09F
:102B800068E0CE010E94711491E028852813F6CFE9
:102B9000892FDF91CF911F910F91FF90EF90DF90E0
:102BA000CF90BF90AF909F908F907F906F9008953F
:102BB000BF92CF92DF92EF92FF920F931F93CF932A
:102BC000DF93EC01B62EC72E8D85811105C0CE0195
:102BD0000E942E1581110EC01B861D861C8680E06A
:102BE000DF91CF911F910F91FF90EF90DF90CF90E9
:102BF000BF90089540E060EFCE010E94DB1401E039
:102C0000E12CD12C11E0CE010E948814F82ECE01C7
:102C10000E94881491E0F91218C0813099F511349E
:102C2000D8F2DB86D11002C081E08D878B818823AA
:102C300099F22396EB2DFC2DCF0108962991219333
:102C4000E817F907D9F781E0CBCFEE2DF0E0F812C5
:102C50000FC08B851817A0F4DE01AE0FBF1F1396AF
:102C60008C91802379F4F12C193008F41C87D12E33
:102C7000EC0FFD1F8381902F9095892383830AC0D9
:102C80008113F1CFFE01EE0DF11D8381802B838333
:102C9000FF24F3946F2DCE010E94AC141F5F000F30
:102CA00011F4E39401E087E08E1508F0ACCFB7CFC4
:102CB0002091070330910803C901079697FD0796F5
:102CC00023E0959587952A95E1F7209105033091AA
:102CD0000603829FA001839F500D929F500D1124E7
:102CE00070E060E080912003909121030C948B238D
:102CF0000E948623FB0101900020E9F73197AF0184
:102D0000461B570BDC01ED91FC910280F381E02D15
:102D100009948F929F92AF92BF920F931F93CF937C
:102D2000DF93CDB7DEB7A1970FB6F894DEBF0FBE25
:102D3000CDBF19A2423008F44AE08E010F5D1F4F4B
:102D4000842E912CB12CA12CA50194010E94252246
:102D5000E62FB901CA01EA3004F5E05DD801EE932F
:102D60008D01232B242B252B79F790E080E0109701
:102D700029F0BD0181E093E00E947A16A1960FB67A
:102D8000F894DEBF0FBECDBFDF91CF911F910F91A1
:102D9000BF90AF909F908F900895E95CDFCFEF9246
:102DA000FF920F931F93CF93DF938C017B01D0E0B1
:102DB000C0E0F701EC0FFD1F6491662361F0D801BC
:102DC000ED91FC910190F081E02DC8010995892BCE
:102DD00011F02196EECF6CE571E0C8010E947A16E1
:102DE0008C0F9D1FDF91CF911F910F91FF90EF905E
:102DF000089585ED8093BC008091D5019091D60116
:102E0000A091D701B091D8010796A11DB11D23E073
:102E1000B695A795979587952A95D1F72091BC00EF
:102E200024FD03C010921E0208954091D5015091D7
:102E3000D6016091D7017091D801452B462B472BC5
:102E400069F30097A105B10541F02AE22A95F1F74F
:102E500000C00197A109B109E1CF8091D4010C9480
:102E60002D101F920F920FB60F9211242F933F93A4
:102E70008F939F93AF93BF9380914C0290914D029B
:102E8000A0914E02B0914F0230914B0223E0230FEC
:102E90002D3758F50196A11DB11D20934B0280934B
:102EA0004C0290934D02A0934E02B0934F0280913A
:102EB000500290915102A0915202B091530201969A
:102EC000A11DB11D8093500290935102A093520214
:102ED000B0935302BF91AF919F918F913F912F91EA
:102EE0000F900FBE0F901F90189526E8230F0296A3
:102EF000A11DB11DD2CF1F920F920FB60F921124B8
:102F00002F933F934F935F936F937F938F939F93F1
:102F1000AF93BF93EF93FF9388E592E00E9402077F
:102F2000FF91EF91BF91AF919F918F917F916F91A1
:102F30005F914F913F912F910F900FBE0F901F9077
:102F400018951F920F920FB60F9211242F938F9303
:102F50009F93EF93FF93E0916802F0916902808163
:102F6000E0916E02F0916F0282FD1BC09081809112
:102F700071028F5F8F7320917202821741F0E0918E
:102F80007102F0E0E85AFD4F958F80937102FF9136
:102F9000EF919F918F912F910F900FBE0F901F90E7
:102FA00018958081F4CF1F920F920FB60F921124C3
:102FB0002F933F934F935F936F937F938F939F9341
:102FC000AF93BF93EF93FF938091B900887F8036D2
:102FD00009F44AC0F0F5883209F4A7C018F5803129
:102FE00009F49BC0B8F4882309F4F9C0883009F4C7
:102FF00094C0FF91EF91BF91AF919F918F917F917D
:103000006F915F914F913F912F910F900FBE0F9055
:103010001F901895883109F488C0803251F7809349
:103020001D0214C0803409F49DC040F48033B9F30C
:103030008833F9F680931D0285ECB0C0803509F421
:1030400085C0883509F496C0883499F60E94F9162F
:10305000D0CF883909F48CC038F5883729F050F47E
:10306000883611F0803729F683E080931E02109293
:103070001C0257C0883809F47BC0803919F08038A9
:1030800009F0B7CF80911C02803208F071C0E09146
:103090001C0281E08E0F80931C028091BB00F0E047
:1030A000E450FE4F80833DC0803B39F0E0F4803A2D
:1030B00009F479C0883A09F09CCF84E080931E021D
:1030C0001092FB011092FA01E0914702F091480240
:1030D00009958091FA0181110FC081E08093FA0176
:1030E0001092DA0109C0803C09F4A6CF883C09F4AB
:1030F000A3CF883B09F07DCFE091FB0181E08E0FEB
:103100008093FB01F0E0E652FE4F80818093BB008C
:103110009091FB018091FA0129C080914302809334
:10312000BB0085EC8093BC0064CF909142028091FB
:103130004102981758F5E091420281E08E0F80938A
:103140004202F0E0EF5DFD4F8081E9CFE091420265
:1031500081E08E0F809342028091BB00F0E0EF5D32
:10316000FD4F808390914202809141029817C8F2EE
:1031700085E8D8CFE091420281E08E0F8093420231
:103180008091BB00F0E0EF5DFD4F808380912002D5
:1031900081115CCF81E080931F0284EA8093BC00A0
:1031A00010921E0226CF85EC8093BC0010921E0266
:1031B00080911C02803230F4E0911C02F0E0E45077
:1031C000FE4F108260911C0270E0E0914502F09188
:1031D00046028CEF91E0099510921C020ACF1092E2
:1031E0001D0234CFCF93DF93E8E5F2E01382128221
:1031F00088EE93E0A0E0B0E084839583A683B78354
:1032000020E131E03183208325EC30E035872487CD
:1032100024EC30E03787268720EC30E0318B208BA0
:1032200021EC30E0338B228B22EC30E0358B248B89
:1032300026EC30E0378B268B118E128E138E148E77
:10324000C5EFD2E01B821A828C839D83AE83BF833D
:1032500082E291E09983888360E086E00E94F9052C
:10326000E1EFFAE0E491A8E5B3E0EC93EDEDFAE0EC
:10327000E491F0E0EE0FFF1FE353F54F8591949139
:1032800012969C938E9311971B961C921B971D96DA
:103290001C921D971C961C921C971A961C921A97AA
:1032A00019961C92199718961C92189717961C92AB
:1032B000179716961C92169715961C9215971496AA
:1032C0001C92149713961C921397E1E4F3E0178273
:1032D0001086108289E0838391E09483958396839E
:1032E0001182168A158A8FEF838B148AB287A18781
:1032F000E1E0F3E01382128240E850E0558344831A
:1033000020E430E037832683518740873387228744
:10331000168A1586148617861686958B948B2FEF42
:103320003FEF338B228B318B208B978B108E128E3D
:10333000118E24E331E031832083148E138ED68FD7
:10334000C58F10A2178E84A385A386A387A380A709
:1033500080E89AE1A6E0B0E085AB96ABA7ABB0AF52
:1033600080EA96E8A1E0B0E081AF92AFA3AFB4AF3E
:1033700080E586AF17AEDF91CF910895CF93DF93AD
:10338000CDB7DEB761970FB6F894DEBF0FBECDBFE5
:10339000789484B5826084BD84B5816084BD85B530
:1033A000826085BD85B5816085BD80916E0081603C
:1033B00080936E00109281008091810082608093E2
:1033C00081008091810081608093810080918000E4
:1033D0008160809380008091B10084608093B1000F
:1033E0008091B00081608093B00080917A00846009
:1033F00080937A0080917A00826080937A00809135
:103400007A00816080937A0080917A00806880934E
:103410007A001092C100E0916802F091690282E0A6
:103420008083E0916402F09165021082E09166026F
:10343000F09167028FEC808310927002E0916C0231
:10344000F0916D0286E08083E0916A02F0916B0258
:10345000808180618083E0916A02F0916B028081BB
:1034600088608083E0916A02F0916B0280818068BD
:103470008083E0916A02F0916B0280818F7D80836E
:1034800013E001E0E0914A03F0914B0313861586A7
:10349000148612861186108617821682158214826F
:1034A0001382109248031092490362E370E080E0B7
:1034B00090E00E944F06BE01665F7F4F80914A03F5
:1034C00090914B030E94D815882309F47AC067E0D5
:1034D000CE010A960E94711499898913ECCF8091CC
:1034E00048038F5F809348038A85883231F008F063
:1034F0004EC0803111F08232F1F6809149038F5F26
:103500008093490380914103811128C080914A032F
:1035100090914B030E942E15BE01665F7F4F8091F4
:103520004A0390914B030E940F1540E064EB809199
:103530004A0390914B030E94DB1480914A039091BF
:103540004B030E948814F82E80914A0390914B03FC
:103550000E942E15F11002C0009341038A8580312C
:1035600009F1BE016F5F7F4FCE010A960E9466157A
:10357000882359F08D819A859B3311F487FD12C001
:103580008F3391F058F48F31C1F080E00EC08B334F
:1035900009F4B3CF823409F08ECFAFCF8F3579F0F5
:1035A0008F3799F78CE001C08AE090914403981717
:1035B00008F081CF809344037ECF89E0F6CF8BE083
:1035C000F4CF80914803811103C0115009F05ACF04
:1035D00061E083E00E94F90580912003909121032E
:1035E000892B11F10E94581620910703309108038E
:1035F0008091050390910603213231050CF03DC006
:10360000B9016052710977FF02C06F5F7F4F7595F6
:1036100067958357910997FD019600E210E023E733
:1036200030E04AEA55E03CC020910703309108039E
:10363000C901079697FD0796B3E095958795BA95CA
:10364000E1F72091050330910603AC01429FC001D0
:10365000439F900D529F900D11240E9461229093E0
:10366000210380932003892B09F0BCCF69E57AE020
:1036700088E592E00E94CF16FFCFB901605471092E
:1036800077FF02C06F5F7F4F7595679582559109EF
:1036900097FD019600E410E022E530E04AE857E0AB
:1036A000959587950E94D90E82E08093230380919F
:1036B0001E0390911F03892B09F499C18CE3809319
:1036C000220310924A02109249021092550210925F
:1036D00054020E940F1082E896E090934802809373
:1036E000470283E896E090934602809345028091DA
:1036F000290387FD1EC061E00E94F90561E0809109
:1037000029030E94AD0561E070E080E090E00E9436
:103710004F0660E0809129030E94AD056AE070E0E9
:1037200080E090E00E944F0661E0809129030E94B2
:10373000AD0580911E0390911F03892B09F416C2D9
:10374000209136033091370340913803509139036B
:1037500060E074E284EF90E00E942522205131095C
:103760004109510956954795379527952093B800FB
:1037700064E086EA95E00E94BA1160910703615007
:1037800081E093E00E946F1264E082EA95E00E947B
:10379000BA118091230360E1813009F064E181E096
:1037A00093E00E946F1264E08EE995E00E94BA11E6
:1037B0008FE880933E038091050390910603803843
:1037C000910509F0EAC180910703909108038034C4
:1037D000910509F0F2C180912303813009F000C204
:1037E0008FE980933E0312E16AED81E093E00E944D
:1037F0006F12612F81E093E00E946F1261E881E017
:1038000093E00E946F1260913E0381E093E00E947A
:103810006F1269ED81E093E00E946F1280912303A3
:1038200062E2813009F061EF81E093E00E946F1263
:1038300066E088E995E00E94BA1180911E0390919C
:103840001F03892B09F4CEC120913A0330913B0329
:1038500040913C0350913D0360E074E284EF90E0BE
:103860000E94252220513109410951095695479559
:10387000379527952093B8000E94581681E08093D1
:1038800015038093160381E090E0909314038093D6
:103890001303909312038093110310920E0310925E
:1038A0000D031092100310920F036AE47AE081E096
:1038B00093E00E94CF160E94D1126CED75E080E07B
:1038C00090E00E944F06B0E02B2EB0E03B2E80919E
:1038D0004A0390914B030E942E1540E06CEC8091BE
:1038E0004A0390914B030E94DB144091410364E42E
:1038F00080914A0390914B030E94DB148FB7F89498
:10390000C0904C02D0904D02E0904E02F0904F02D9
:103910008FBF80914503882329F180914603882336
:1039200009F46AC180914103811166C180914A0303
:1039300090914B030E9488148130A1F02FB7F89426
:1039400080914C0290914D02A0914E02B0914F0295
:103950002FBF8C199D09AE09BF098E3E9240A1056B
:10396000B10520F38091480381116FC1C12CD12C86
:10397000EEEFEE2EE2ECFE2E0E94581620E030E034
:103980004EEF52ECC701B6010E94B420811132C241
:1039900081E0809315038093160310920E0310921A
:1039A0000D031092100310920F036FE87AE081E08C
:1039B00093E00E94CF1662E87AE081E093E00E94F3
:1039C000CF160E94D1120E94D11260ED77E080E004
:1039D00090E00E944F062114310409F478CF0E9430
:1039E000EE06882309F473CF0E94000070CF61E0D7
:1039F000809127030E94F90561E0809128030E94CD
:103A0000F90580912703082E000C990BFC01E9525F
:103A1000F54FE491F0E0EE0FFF1FE555F54F2591CE
:103A2000349130932F0320932E03FC01E551F54F81
:103A3000E491E093340380912803082E000C990B45
:103A4000FC01E952F54FE491F0E0EE0FFF1FE55560
:103A5000F54FA591B491B0933103A0933003FC01CD
:103A6000E551F54FE491E09335038C91E82BEC930D
:103A700080911C0390911D03892B09F434C01FB75A
:103A8000F89480914402811127C0E1EEFAE084911C
:103A9000E5EFFAE09491E82FF0E0EE0FFF1FEF550D
:103AA000F54FA591B491EC91E92321F461E08AE00E
:103AB0000E94AD0561E08AE00E94F9058CB5806145
:103AC0008CBD8CB580648CBD61E08DE00E94F905F1
:103AD00061E08BE00E94F905809144028F5F809342
:103AE00044021FBF04CE61E0809125030E94F905C6
:103AF00061E0809126030E94F90580912503082E3C
:103B0000000C990BFC01E952F54FE491F0E0EE0F47
:103B1000FF1FE555F54F2591349130932B032093EA
:103B20002A03FC01E551F54FE491E09332038091C3
:103B30002603082E000C990BFC01E952F54FE49185
:103B4000F0E0EE0FFF1FE555F54FA591B491B0934E
:103B50002D03A0932C03FC01E551F54FE491E09374
:103B600033038C91E095E823EC93C1CD80911C0345
:103B700090911D03892B31F080913F039091400378
:103B80000E94EF09E0913003F09131039081809120
:103B90003503809589238083EBCD8036910589F4A8
:103BA0008091070390910803409739F48091230393
:103BB000813029F480E180933E0312E015CE8FEA34
:103BC000FACF80349105C9F78091070390910803DB
:103BD000809799F780912303813011F480E101CE21
:103BE0008FECFFCDE0913003F09131038081909113
:103BF0003503892B808340CEE0914403E9508EEE5B
:103C000092E0E33038F4F0E0EE0FFF1FEA5FFE4F82
:103C1000808191816C01F12CE12C809142038823F9
:103C200029F060E0809143030E94AD05C701B60111
:103C30000E944F0680914203882309F493CE61E0ED
:103C4000809143030E94AD058DCEE0914A03F0912F
:103C50004B031386158614861286118610861782EA
:103C60001682158214821382BE01665F7F4F809197
:103C70004A0390914B030E94D815882309F476CE0D
:103C800067E0CE010A960E947114998989136ECE5D
:103C9000BE016F5F7F4FCE010A960E946615882392
:103CA00009F464CE9A81412C512C320197FF06C051
:103CB000412C512C78EF672E77247A942A858981BC
:103CC0002B3309F041C03D8137FF3EC080FD4ECE11
:103CD000C82ED12CF12CE12C53E0CC0CDD1CEE1CB9
:103CE000FF1C5A95D1F780EEC82287E0D822EE2437
:103CF000FF24892F90E0B0E0A0E06BE0880F991FCF
:103D0000AA1FBB1F6A95D1F78C299D29AE29BF290F
:103D10006C017D01C428D528E628F72831E8C316B0
:103D200034EED3063FEFE306F3060CF41FCEC701D3
:103D3000B6010E94EA2020E030E040E05CE30E940F
:103D40009F216B017C0118CEC92ED12CDC2CCC24F8
:103D5000DD0CDD0CDD0C38E0839FB0011124C62A98
:103D6000D72A0D2C000CEE08FF08C428D528E62819
:103D7000F728283269F4803531F4953079F68F814F
:103D80008C3061F6F3CD8F3F49F6973039F6EECDA2
:103D9000203121F66885662309F270E08F81AB013E
:103DA000481B5109CA019695982F882797958795A2
:103DB0000E941122CB01770FAA0BBB0B33E0CC0C76
:103DC000DD1CEE1CFF1C3A95D1F750E8C52257E0E8
:103DD000E522FF2420E2C21AD108E108F1088C0D87
:103DE0009D1DAE1DBF1D73016201C82AD92AEA2A92
:103DF000FB2A94CF81E080931503809316031092E1
:103E00000E0310920D031092100310920F0363E73C
:103E10007AE081E093E00E94CF1601E010E020E814
:103E200030E04AE050E070E060E081E093E00E9422
:103E3000F10842E0409315034093160310920E03DD
:103E400010920D0384E190E09093100380930F0390
:103E5000A7019601C701B6010E940C226FE571E02F
:103E600081111AC026013701E89477F82FEF3FEF50
:103E70004FE75FE7C301B2010E940C22811141C0EC
:103E80002FEF3FEF4FE75FE7C301B2010E94B4207D
:103E90001816BCF563E671E081E093E00E947A16A3
:103EA0006BE671E081E093E00E947A1610920E03B7
:103EB00010920D0328E230E03093100320930F039B
:103EC00081E080931503809316036EE671E081E034
:103ED00093E00E947A1620E030E048E452E4C70103
:103EE000B6010E94B42018160CF482C06AE771E093
:103EF00081E093E00E947A1661E083E00E94AD05C4
:103F000062CD2FEF3FEF4FE75FE4C701B6010E949C
:103F10009A2118161CF467E671E0BECF2FEF3FEF31
:103F20004FE75FECC701B6010E94B42087FDF3CFD5
:103F300020E030E0A901C701B6010E94B42087FF4C
:103F400054C06DE281E093E00E942D0CC701B601E0
:103F500090582AE037ED43EA5BE30E9448204B018A
:103F60005C010E94B9202B013C010E94E8209B01CA
:103F7000AC01C501B4010E9447204B015C014AE03D
:103F8000C301B2010E9489166EE281E093E00E94B3
:103F90002D0C20E030E040E251E4C501B4010E9464
:103FA0009F214B015C010E94B9202B01712C612CD7
:103FB0004AE0C301B2010E948916C301B2010E9406
:103FC000E8209B01AC01C501B4010E94472020E01C
:103FD00030E040E251E40E949F210E94B92090E02D
:103FE00080E04AE00E9489165BCFC701B601B1CFDD
:103FF00020E030E048E452E4C701B6010E949A2173
:1040000018164CF520E030E04CE852E4C701B60148
:104010000E94B4201816FCF062E871E081E093E0A1
:104020000E947A1661E083E00E94AD0561E085E0C0
:104030000E94AD0568EE73E080E090E00E944F06BC
:1040400060E085E00E94AD0568EE73E080E090E0FE
:104050000E944F06B8CC6AE871E081E093E00E94CC
:104060007A1660E083E00E94AD0561E085E046CF0E
:1040700084E391E0909302038093010380912003F5
:1040800090912103009711F00C94FD22089550584F
:10409000BB27AA270E945F200C9460210E94522116
:1040A00038F00E94592120F039F49F3F19F426F48A
:1040B0000C944F210EF4E095E7FB0C944921E92F75
:1040C0000E94712158F3BA17620773078407950796
:1040D00020F079F4A6F50C9493210EF4E0950B2EC4
:1040E000BA2FA02D0B01B90190010C01CA01A0014A
:1040F0001124FF27591B99F0593F50F4503E68F1A5
:104100001A16F040A22F232F342F4427585FF3CFE5
:10411000469537952795A795F0405395C9F77EF4B6
:104120001F16BA0B620B730B840BBAF09150A1F0FF
:10413000FF0FBB1F661F771F881FC2F70EC0BA0F85
:10414000621F731F841F48F4879577956795B7950D
:10415000F7959E3F08F0B0CF9395880F08F0992708
:10416000EE0F9795879508950E94252108F481E028
:1041700008950E94792188F09F5798F0B92F9927C8
:10418000B751B0F0E1F0660F771F881F991F1AF042
:10419000BA95C9F714C0B13091F00E949321B1E0F3
:1041A00008950C949321672F782F8827B85F39F0F2
:1041B000B93FCCF3869577956795B395D9F73EF4DB
:1041C00090958095709561957F4F8F4F9F4F089583
:1041D000E89409C097FB3EF49095809570956195A1
:1041E0007F4F8F4F9F4F9923A9F0F92F96E9BB2757
:1041F0009395F695879577956795B795F111F8CFD3
:10420000FAF4BB0F11F460FF1BC06F5F7F4F8F4F3D
:104210009F4F16C0882311F096E911C0772321F033
:104220009EE8872F762F05C0662371F096E8862FCB
:1042300070E060E02AF09A95660F771F881FDAF722
:10424000880F9695879597F90895990F0008550F4F
:10425000AA0BE0E8FEEF16161706E807F907C0F00C
:1042600012161306E407F50798F0621B730B840B14
:10427000950B39F40A2661F0232B242B252B21F4EE
:1042800008950A2609F4A140A6958FEF811D811D8E
:10429000089597F99F6780E870E060E008959FEFC8
:1042A00080EC089500240A941616170618060906CD
:1042B000089500240A94121613061406050608959C
:1042C000092E0394000C11F4882352F0BB0F40F424
:1042D000BF2B11F460FF04C06F5F7F4F8F4F9F4F64
:1042E000089557FD9058440F551F59F05F3F71F0E6
:1042F0004795880F97FB991F61F09F3F79F087954D
:104300000895121613061406551FF2CF4695F1DFD5
:1043100008C0161617061806991FF1CF8695710565
:10432000610508940895E894BB2766277727CB0199
:1043300097F908950E94252108F48FEF08950E94AF
:10434000B2210C9460210E94522138F00E94592120
:1043500020F0952311F00C9449210C944F21112445
:104360000C9494210E94712170F3959FC1F3950FD5
:1043700050E0551F629FF001729FBB27F00DB11DE9
:10438000639FAA27F00DB11DAA1F649F6627B00D79
:10439000A11D661F829F2227B00DA11D621F739F62
:1043A000B00DA11D621F839FA00D611D221F749F70
:1043B0003327A00D611D231F849F600D211D822FB7
:1043C000762F6A2F11249F5750409AF0F1F08823DE
:1043D0004AF0EE0FFF1FBB1F661F771F881F91500B
:1043E0005040A9F79E3F510580F00C9449210C9450
:1043F00094215F3FE4F3983ED4F3869577956795D3
:10440000B795F795E7959F5FC1F7FE2B880F911D34
:104410009695879597F908950E942521880B990B09
:10442000089597FB072E16F4009407D077FD09D066
:104430000E94472207FC05D03EF4909581959F4F3E
:104440000895709561957F4F0895A1E21A2EAA1BD9
:10445000BB1BFD010DC0AA1FBB1FEE1FFF1FA21734
:10446000B307E407F50720F0A21BB30BE40BF50B31
:10447000661F771F881F991F1A9469F760957095BA
:10448000809590959B01AC01BD01CF010895AA1BB9
:10449000BB1B51E107C0AA1FBB1FA617B70710F02F
:1044A000A61BB70B881F991F5A95A9F78095909561
:1044B000BC01CD010895EE0FFF1F0590F491E02D92
:1044C00009940F931F93CF93DF938230910510F4DB
:1044D00082E090E0E0916803F091690330E020E031
:1044E000B0E0A0E0309799F42115310509F44AC0F5
:1044F000281B390B24303105D8F58A819B81611541
:10450000710589F1FB0193838283FE0111C0408113
:1045100051810281138148175907E0F04817590764
:1045200099F4109761F012960C93129713961C93BE
:104530003296CF01DF91CF911F910F910895009393
:10454000680310936903F4CF2115310551F0421728
:10455000530738F0A901DB019A01BD01DF01F80121
:10456000C1CFEF01F9CF9093690380936803CDCF5A
:10457000FE01E20FF31F8193919322503109398399
:104580002883D7CF2091660330916703232B41F412
:104590002091020130910301309367032093660359
:1045A00020910001309101012115310541F42DB711
:1045B0003EB74091040150910501241B350BE09159
:1045C0006603F0916703E217F307A0F42E1B3F0B7D
:1045D0002817390778F0AC014E5F5F4F2417350775
:1045E00048F04E0F5F1F509367034093660381931B
:1045F00091939FCFF0E0E0E09CCFCF93DF930097C3
:10460000E9F0FC01329713821282A0916803B09105
:104610006903ED0130E020E01097A1F420813181A1
:10462000820F931F20916603309167032817390783
:1046300009F061C0F0936703E0936603DF91CF91C7
:104640000895EA01CE17DF07E8F54A815B819E01F4
:1046500041155105B1F7E901FB83EA83499159916D
:10466000C40FD51FEC17FD0761F48081918102967C
:10467000840F951FE90199838883828193819B83AD
:104680008A83F0E0E0E012968D919C911397009759
:10469000B9F52D913C911197CD010296820F931F90
:1046A00020916603309167032817390739F6309750
:1046B00051F51092690310926803B0936703A093B9
:1046C0006603BCCFD383C28340815181840F951F81
:1046D000C817D90761F44E5F5F4F88819981480FF1
:1046E000591F518340838A819B8193838283211543
:1046F000310509F0B0CFF0936903E09368039ECFD2
:10470000FD01DC01C0CF13821282D7CF81E090E09F
:10471000F8940C949223DC0101C06D9341505040F9
:10472000E0F7089515E0C1E8D5E004C0FE010E945D
:0E4730005B222196C238D107C9F7F894FFCF5B
:10473E0000006A0380005E00BC00770100000000EC
:10474E0024078406B1067107E206C006D4060000EF
:10475E000000A41077106E14AC0570105D104E1092
:10476E00000000002D0C84066E14E70F3809AC050E
:10477E00D20EAA0EC60EBA0E3A0FAC05F3091814D5
:10478E00A808F108F30DD60D5E0DFF0C0D0A006E94
:10479E00616E00696E66006F7666002043004F7092
:1047AE0065726174696F6E3A2000526567756C614F
:1047BE00720043617574696F6E004F76657268653D
:0447CE006174000012
:00000001FF
